:06030000121930247940BF
:0A031000C09080F8829299B0A4F921
:050320008883C6A1BFA7
:02000000804E30
:0200030001B347
:02000B0001DE14
:0200130001BE2C
:1000500011751196119E11841188BB00061196111D
:100060009E80F7BB01EABD00061196119E80F41137
:10007000A611AB80EE780079007A007B007C007DD1
:10008000007E002275A88322758901758AF0758C1F
:10009000D8C28CD28822900300EA93F59022900374
:1000A00010E993F5A022743FF59022900320EC9381
:1000B000F5A022D28CC2A8D2AA78007B00327800A8
:1000C0007B01D2A8C2AA20B4047C00801020B50411
:1000D0007C01800920B6047C0280027C0332C28944
:1000E000758AF0758CD808B80A2DBB0019097800FC
:1000F000B901010AB90A207900BA051B7B017C0409
:10010000D2A8C2AA80110E7800BE0A0B7E00BD01E3
:08011000047D0080027D013234
:00000001FF
