:1008000000000001000000000001000000000000E6
:1008100000010000000000010001000000000000D5
:1008200000000000000000000001000100000000C6
:1008300000000000000100000000000100000000B6
:1008400000010000000000010001000100010000A3
:100850000000000000000000000000000001000097
:100860000000000000000000000000000001000186
:100870000000000000000000000100000000000176
:100880000000000000000000000000000000000167
:100890000000000000000001000100010001000153
:1008A0000000000100000000000000000000000146
:1008B0000000000100000000000100000000000135
:1008C0000001000000000001000100000000000124
:1008D0000000000000000000000100010000000115
:1008E0000000000000010000000000010000000105
:1008F00000010000000000010001000100010001F2
:1009000000000000000000010000000000000001E5
:1009100000010001000000000000000000000001D4
:1009200000000001000100000000000000010001C3
:1009300000010000000000000000000100000001B4
:1009400000010001000100010001000100000001A0
:100950000001000100010001000100010000000091
:100D9800C100C101010900010A00010800010B009E
:030DA800010C0437
:100D2E00C200C201E4F50AF509F508F50B750C04CD
:100D3E00D2AFD2A9D2A8C2AA758901758CD8758AEC
:060D4E00F0C28CD28822E5
:03000300020DAC3F
:0C0DAC00D28CC2A8D2AAC2007509003285
:03000B00020CE6FE
:100CE600C0E0C0D0C289758CD8758AF00509E509BF
:100CF600640A702FF50920001E050AE50AB40102F0
:100D0600050BE50A640A701BF50AE50BB40514B277
:100D160000D2A8C2AA800C0508E508B40A05750821
:080D260000B201D0D0D0E03290
:03001300020D5487
:100D5400750900D200C2AAD2A820B404750C0032CE
:100D640020B504750C013220B604750C023220B78C
:050D740003750C0332C1
:100B8900EFC454F02400F582E43408F583E493FCBF
:100B9900740193FDEC4D24FF9290EFC454F02402AC
:100BA900F582E43408F583E493FC740193FDEC4D7C
:100BB90024FF9291EFC454F02404F582E43408F53B
:100BC90083E493FC740193FDEC4D24FF9292EFC4EE
:100BD90054F02406F582E43408F583E493FC7401A7
:100BE90093FDEC4D24FF9293EFC454F02408F58251
:100BF900E43408F583E493FC740193FDEC4D24FF80
:100C09009294EFC454F0240AF582E43408F583E49D
:100C190093FC740193FDEC4D24FF9295EFC454F0BD
:100C2900240CF582E43408F583E493FC740193FD04
:100C3900EC4D24FF9296EFC454F0240EF582E4346F
:100C490008F583E493FE740193FFEE4F24FF929716
:010C59002278
:070AB100AF0B120B89AF0A25
:100AB800EFC454F02460F582E43408F583E493FC31
:100AC800740193FDEC4D24FF92A0EFC454F024620E
:100AD800F582E43408F583E493FC740193FDEC4D4E
:100AE80024FF92A1EFC454F02464F582E43408F59D
:100AF80083E493FC740193FDEC4D24FF92A2EFC4B0
:100B080054F02466F582E43408F583E493FC740118
:100B180093FDEC4D24FF92A3EFC454F02468F582B2
:100B2800E43408F583E493FC740193FDEC4D24FF51
:100B380092A4EFC454F0246AF582E43408F583E4FF
:100B480093FC740193FDEC4D24FF92A5EFC454F07F
:100B5800246CF582E43408F583E493FC740193FD76
:100B6800EC4D24FF92A6EFC454F0246EF582E434D1
:100B780008F583E493FE740193FFEE4F24FF92A7D8
:010B8800224A
:10096000900950E493FC740193FDEC4D24FF9290A8
:10097000900952E493FC740193FDEC4D24FF929195
:10098000900954E493FC740193FDEC4D24FF929282
:10099000900956E493FC740193FDEC4D24FF92936F
:1009A000900958E493FC740193FDEC4D24FF92945C
:1009B00090095AE493FC740193FDEC4D24FF929549
:1009C00090095CE493FC740193FDEC4D24FF929636
:1009D00090095EE493FC740193FDEC4D24FF929723
:1009E000EFC454F02400F582E43409F583E493FC69
:1009F000740193FDEC4D24FF92A0EFC454F0240247
:100A0000F582E43409F583E493FC740193FDEC4D25
:100A100024FF92A1EFC454F02404F582E43409F5D4
:100A200083E493FC740193FDEC4D24FF92A2EFC488
:100A300054F02406F582E43409F583E493FC740150
:100A400093FDEC4D24FF92A3EFC454F02408F582EB
:100A5000E43409F583E493FC740193FDEC4D24FF29
:100A600092A4EFC454F0240AF582E43409F583E437
:100A700093FC740193FDEC4D24FF92A5EFC454F058
:100A8000240CF582E43409F583E493FC740193FDAE
:100A9000EC4D24FF92A6EFC454F0240EF582E4340A
:100AA00009F583E493FE740193FFEE4F24FF92A7B0
:010AB0002223
:100D7900120D2E8003200005120AB180F83000F010
:0F0D8900200105120AB180F5AF0C12096080EE4F
:03000000020C5A95
:0C0C5A00787FE4F6D8FD758120020CA123
:100C6600020D79E493A3F8E493A34003F68001F21E
:100C760008DFF48029E493A3F85407240CC8C3338F
:100C8600C4540F4420C8834004F456800146F6DF5E
:100C9600E4800B0102040810204080900D98E47E49
:100CA600019360BCA3FF543F30E509541FFEE49353
:100CB600A360010ECF54C025E060A840B8E493A31A
:100CC600FAE493A3F8E493A3C8C582C8CAC583CA45
:100CD600F0A3C8C582C8CAC583CADFE9DEE780BEFD
:010DAB000047
:00000001FF
